:100000000C9446000C9465000C9465000C946500FB
:100010000C9465000C9465000C9465000C946500CC
:100020000C9465000C9465000C9465000C946500BC
:100030000C9407090C9465000C9465000C94650001
:100040000C9465000C9465000C9465000C9465009C
:100050000C9465000C9465000C9465000C9465008C
:100060000C9465000C9465000C942F090C946500A9
:100070000C9465000C9465000C9465000C9465006C
:100080000C9465000C9465000C94650011241FBE4F
:10009000CFEFD0E1DEBFCDBF11E0A0E0B1E0EAE6F6
:1000A000F6E100E00BBF02C007900D92A83CB1073B
:1000B000D9F711E0A8ECB1E001C01D92A93CB1074D
:1000C000E1F70E9453080C94330B0C9400008091CC
:1000D000C8018F5F8093C8010895CF92DF92EF929D
:1000E000FF920F931F93CF93DF938C017B01FC0151
:1000F000E60FF71F10828CB59DB50E947F0A1E1473
:100100001F04A4F4C0E0D0E00F2EF6E0CF2EDD24D3
:10011000F02D0E947A0AB6010E94050A8F5CF80150
:1001200081938F012196CE15DF059CF380E090E04E
:10013000DF91CF911F910F91FF90EF90DF90CF90C3
:100140000895AF92BF92CF92DF92EF92FF920F93FA
:100150001F93CF93DF935C016B017A011416150690
:10016000C4F4CA010296869FE001879FD00D969F36
:10017000D00D1124CA0DDB1D00E010E0899190E044
:1001800061E070E00E9488090F5F1F4F0E151F0588
:10019000ACF380E290E061E070E00E948809E70142
:1001A0002196EC16FD06ECF080E290E061E070E054
:1001B0000E948809C7010296C817D90744F58C9D8B
:1001C00090018D9D300D9C9D300D1124CA0DDB1DBD
:1001D000C20FD31F888190E061E070E00E9488091F
:1001E00016C097012E5F3F4F2C9DC0012D9D900D95
:1001F0003C9D900D1124F501EE0DFF1DE80FF91F38
:10020000808190E061E070E00E948809CDCFDF91AD
:10021000CF911F910F91FF90EF90DF90CF90BF9003
:10022000AF900895662339F490E0806860E070E054
:100230000E948809089590E0805C9F4F806860E08C
:1002400070E00E94880908952F923F925F926F920A
:100250007F928F929F92AF92BF92CF92DF92EF9256
:10026000FF920F931F93DF93CF93CDB7DEB76097C5
:100270000FB6F894DEBF0FBECDBF7A013E832D834B
:100280001A8709872DB73EB73E872D87F801019061
:10029000F081E02DF887EF839A012F5F3F4F4DB734
:1002A0005EB7421B530B0FB6F8945EBF0FBE4DBF37
:1002B0002DB73EB72F5F3F4F3C872B871E141F047F
:1002C0000CF0DAC0582F492FC82ED92E522E332EBB
:1002D000A22FB32FE52FF42F80E090E021912D93F2
:1002E00001968E159F05D1F74B018E0C9F1C452D55
:1002F000532D86019B011C821B821A82198266245F
:1003000077240F2EF0E32F2EF02D788B6F87F901D5
:10031000A1909F01F80181918F01A81641F4898174
:100320009A8101969A838983FA0120821CC0E52D67
:10033000F32DC301A191AA1691F4DB01A80FB91FF7
:10034000AC91AA1661F0EB81FC813196FC83EB83C2
:10035000EB85FC858E0F9F1FFC01208204C0019657
:100360008E159F053CF34F5F5F4F2815390579F6D1
:10037000AF84B8888AE061E00E94120100E010E0DA
:10038000F60181916F0190E061E070E00E948809C0
:100390000F5F1F4F0E151F059CF3C70102962F819B
:1003A0003885289FF001299FF00D389FF00D11240A
:1003B0004D815E81E40FF51F80E090E0D5012D9125
:1003C000219301968E159F05D1F797012E5F3F4F20
:1003D000E216F306ACF4EF81F885E29FC001E39FDB
:1003E000900DF29F900D11248E0D9F1DED81FE81C9
:1003F000E80FF91F3981305D2B81205D3083218327
:1004000081E060E00E9412018D819E816F8178857C
:10041000A7010E94A100E985FA858081918101965A
:100420009183808321E030E049815A814E155F0538
:1004300011F020E030E0822F932FED85FE850FB67E
:10044000F894FEBF0FBEEDBF60960FB6F894DEBF06
:100450000FBECDBFCF91DF911F910F91FF90EF9015
:10046000DF90CF90BF90AF909F908F907F906F90D4
:100470005F903F902F9008958AE061E00E94120102
:100480001C821B821A821982A0CF8F929F92AF92F8
:10049000BF92CF92DF92EF92FF920F931F93CF9371
:1004A000DF934C016B017A018CE090E060E070E03A
:1004B0000E948809CB9B45C008948108910884015B
:1004C0000F2EFAE0AF2EBB24F02D80E061E00E94F9
:1004D000120181E060E00E941201C701B801A6018B
:1004E0000E94A1008EE060E00E941201C801019606
:1004F000B5010E94050AEC01CB01C09661E070E0F5
:100500000E948809CE01C09661E070E00E948809CF
:10051000C89905C00115110511F001501040CC9982
:1005200005C00815190511F00F5F1F4F8FEF97E8F1
:10053000A3E181509040A040E1F700C00000CB99BA
:10054000C4CF8DE090E060E070E00E948809DF9108
:10055000CF911F910F91FF90EF90DF90CF90BF90C0
:10056000AF909F908F900895EF92FF920F931F93FB
:10057000DF93CF9300D000D0CDB7DEB77B012091C1
:10058000C80108EE13E0021B1109282F392FC901F9
:10059000880F991F220F331F220F331F220F331F83
:1005A000280F391F021B130B12F400E010E080919A
:1005B000000190910101A0910201B0910301898392
:1005C0009A83AB83BC83C80164E670E00E94050A8D
:1005D000E62FE05DE9832AE030E0B9010E94050AD8
:1005E000605D6A83C801B9010E94050A805D8B8342
:1005F0008E2F90E061E070E00E9488098A8190E08F
:1006000061E070E00E9488098B8190E061E070E019
:100610000E948809C7010E948A0A8017910724F066
:1006200023E0893E920744F0CE0101966AE070E033
:1006300044E050E00E94C00A0F900F900F900F907E
:10064000CF91DF911F910F91FF90EF9008952F921E
:100650003F924F925F926F927F928F929F92AF9252
:10066000BF92CF92DF92EF92FF920F931F93DF938F
:10067000CF93CDB7DEB765970FB6F894DEBF0FBE48
:10068000CDBF998B888B4B012A013D8B2C8B1A8215
:100690001982DE011396E4E0F1E085E001900D920D
:1006A0008150E1F71092C80181E090E060E070E0D5
:1006B0000E948809EE24FF24E3946624772463943F
:1006C0000F2EF3E0CF2EDD24F02DCC0EDD1EC30166
:1006D000B62CA92EC601CA8A9B8B0F2EFAE02F2EAC
:1006E0003324F02D8FEF99E6A8E181509040A0408F
:1006F000E1F700C0000089819A81009789F080E0CD
:1007000060E00E94120180E090E0B3010E9488093D
:1007100080E061E00E941201C301B3010E948809D8
:1007200081E062E00E9412018B81882361F08E01DA
:100730000C5F1F4F90E0B3010E948809D8018D9192
:100740008D018823B9F78DE090E060E070E00E94B1
:1007500088098E2D61E00E941201CA9B84C0C9994C
:1007600013C0E114F10499F00894E108F1088E2D0A
:1007700061E00E9412018FEF93ECA9E0815090405C
:10078000A040E1F700C00000E114F10439F48981D0
:100790009A81009709F0DAC0EB2CFA2CCB9913C0A0
:1007A000E814F90481F00894E11CF11C8E2D61E03D
:1007B0000E9412018FEF93ECA9E081509040A0407D
:1007C000E1F700C00000C89923C0C7010197F601F6
:1007D000E80FF91F2081263329F0F601E80FF91FF1
:1007E0002F5F20838C0D9D1DDC018C9190E06B2D83
:1007F0007A2D0E9488098E2D61E00E9412018FEFF0
:1008000093ECA9E081509040A040E1F700C00000C7
:10081000CC9923C0C7010197F601E80FF91F208189
:10082000213329F0F601E80FF91F215020838C0DA8
:100830009D1DDC018C9190E06B2D7A2D0E94880922
:100840008FEF93ECA9E081509040A040E1F700C009
:1008500000008E2D61E00E9412018E2D61E00E9449
:100860001201CA997CCF8FEF93ECA9E081509040A0
:10087000A040E1F700C000008EE060E00E9412019D
:1008800089819A810196B1010E94050ACB01C09627
:10089000B3010E94880989819A810196B1010E9461
:1008A000050AC096B3010E948809888999896A89D6
:1008B0007B89A40192018E010F5F1F4F0E942401CA
:1008C000009709F40FCF81E090E060E070E00E94B3
:1008D0008809DE011896E9E0F1E088E001900D92C8
:1008E0008150E1F78E01085F1F4F0F2EFFE0EF2EC2
:1008F000FF24F02DEC0EFD1ED8018D918D0190E0AE
:1009000061E070E00E9488090E151F05A9F7898132
:100910009A816C897D890E94B40265960FB6F8941D
:10092000DEBF0FBECDBFCF91DF911F910F91FF9022
:10093000EF90DF90CF90BF90AF909F908F907F907F
:100940006F905F904F903F902F900895B401A20157
:100950000E94450281E061E00E9412018FEF93EC5A
:10096000A9E081509040A040E1F700C00000EB2CCE
:10097000FA2C14CF0F931F93CF93DF93082F162FCA
:10098000E9014130510531F481E090E060E070E030
:100990000E948809802F612F0E941201888188237C
:1009A00049F0219690E061E070E00E948809899109
:1009B0008823C1F7DF91CF911F910F9108952F9256
:1009C0003F924F925F926F927F928F929F92AF92DF
:1009D000BF92CF92DF92FF920F931F93DF93CF933B
:1009E000CDB7DEB7C655D0400FB6F894DEBF0FBE08
:1009F000CDBFDE011196E1E1F1E08CE001900D92B6
:100A00008150E1F7DE011D96EDE1F1E08DE001900E
:100A10000D928150E1F7DE015A96EAE2F1E08EE0B4
:100A200001900D928150E1F7DE019896E8E3F1E044
:100A30008DE001900D928150E1F7DE01D596E5E45D
:100A4000F1E081E101900D928150E1F7DE01AA5BB6
:100A5000BF4FE6E5F1E081E101900D928150E1F7B1
:100A60008EB585608EBD8FB780688FBF20E030E087
:100A70000F2EF6E0FF2EF02D0F2EF5E36F2E7724CC
:100A8000F02D6C0E7D1E0F2EF6E44F2E5524F02D0A
:100A90004C0E5D1E03E010E00F2EFAE12F2E3324E2
:100AA000F02D2C0E3D1ECC24DD246894C1F85E018F
:100AB0000894A11CB11C0F2EFDE08F2E9924F02D5F
:100AC0008C0E9D1E9EC08091C8016F2D0E94F90959
:100AD000892F90E0009709F04CC02130310509F4CE
:100AE00048C081E090E060E070E00E94880980E00A
:100AF00060E00E941201C60161E070E00E94880976
:100B0000C80161E070E00E94880983E060E040E095
:100B100050E095010E94BA0480E061E00E94120159
:100B200080E090E061E070E00E94880981E090E060
:100B300061E070E00E94880983E061E040E050E0FD
:100B400094010E94BA048FEF97EAA1E68150904089
:100B5000A040E1F700C000008FE060E00E941201B9
:100B600080E390E061E070E00E94880921E030E0DD
:100B700048C08230910581F52230310509F441C029
:100B800081E090E060E070E00E94880980E060E031
:100B90000E94120180E060E040E050E091010E947C
:100BA000BA0480E061E00E94120180E090E061E020
:100BB00070E00E94880981E090E061E070E00E94AE
:100BC000880983E061E040E050E09E01285D3F4FEE
:100BD0000E94BA04960115C08430910591F4233027
:100BE000310579F080E060E041E050E093010E943F
:100BF000BA0480E061E040E050E092010E94BA0453
:100C00009801CA9960CFCA5ADF4F0FB6F894DEBF79
:100C10000FBECDBFCF91DF911F910F91FF90DF905D
:100C2000CF90BF90AF909F908F907F906F905F908C
:100C30004F903F902F900895EF92FF920F931F9344
:100C4000DF93CF93CDB7DEB7AD970FB6F894DEBF85
:100C50000FBECDBF8C01F62EE72EDE011196E7E622
:100C6000F1E081E101900D928150E1F7DE015296B1
:100C7000E8E7F1E081E101900D928150E1F760E059
:100C800041E050E09E012F5F3F4F0E94BA0480E098
:100C900061E040E050E09E012E5E3F4F0E94BA04AA
:100CA000CA99FECFDE019396E9E8F1E08BE001906E
:100CB0000D928150E1F760E041E050E09E012D5D32
:100CC0003F4F0E94BA0480E061E00E941201D80107
:100CD0008C9190E061E070E00E948809F8018181C8
:100CE00090E061E070E00E948809D80112968C9132
:100CF00090E061E070E00E9488098AE390E061E0A2
:100D000070E00E9488098E2DEF2CF82E00E010E094
:100D1000F70181917F0190E061E070E00E94880915
:100D20000F5F1F4F0330110599F78FEF9BE7A2E983
:100D300081509040A040E1F700C000000E94DF0415
:100D4000AD960FB6F894DEBF0FBECDBFCF91DF9149
:100D50001F910F91FF90EF900895CF92DF92EF9245
:100D6000FF920F931F93DF93CF93CDB7DEB72C97EE
:100D70000FB6F894DEBF0FBECDBF7C0181E090E0DE
:100D800060E070E00E948809DE011196E4E9F1E07C
:100D90008CE001900D928150E1F78DE090E060E0F1
:100DA00070E00E94880980E060E041E050E09E0130
:100DB0002F5F3F4F0E94BA048FEF93EDA0E3815065
:100DC0009040A040E1F700C0000080E061E040E01A
:100DD00050E097010E94BA04CA9B6AC000E010E08C
:100DE0000F2EF1E4DF2EF02D0F2EF9E3CF2EF02D94
:100DF000C9990EC00115110559F0015010408FEF2F
:100E000093ECA9E081509040A040E1F700C00000C1
:100E1000CB990EC00230110559F00F5F1F4F8FEFB5
:100E200093ECA9E081509040A040E1F700C00000A1
:100E3000C8991BC08FEF93ECA9E081509040A0406F
:100E4000E1F700C00000F701E00FF11F8081893356
:100E500011F4D08204C08A3511F08F5F80838081C5
:100E600090E061E070E00E948809CC991BC08FEF90
:100E700093ECA9E081509040A040E1F700C0000051
:100E8000F701E00FF11F8081813411F4C08204C0AA
:100E9000803311F081508083808190E061E070E0C8
:100EA0000E948809802F61E00E941201CA99A0CF98
:100EB0008FEF93ECA9E081509040A040E1F700C093
:100EC0000000C70161E070E044E050E00E94C00A09
:100ED0002C960FB6F894DEBF0FBECDBFCF91DF9139
:100EE0001F910F91FF90EF90DF90CF9008950F9397
:100EF0001F93CF93DF93082F192FC0E0D0E0F801A4
:100F000081918F0190E061E070E00E948809219654
:100F1000C830D105A1F7DF91CF911F910F910895AE
:100F20009F92AF92BF92CF92DF92EF92FF920F9378
:100F30001F93DF93CF93CDB7DEB7C054D0400FB629
:100F4000F894DEBF0FBECDBF0E94A3098CE090E0F5
:100F500060E070E00E94880981E090E060E070E06D
:100F60000E948809DE011196ECEBF1E088E0019027
:100F70000D928150E1F7DE011996E4EBF1E088E093
:100F800001900D928150E1F7DE015196ECEAF1E01B
:100F900088E001900D928150E1F7DE015996E4EA74
:100FA000F1E088E001900D928150E1F79924689476
:100FB00093F80F2EF1E2EF2EFF24F02DEC0EFD1E24
:100FC000F701892D11928A95E9F70F2EF9E2CF2EBC
:100FD000DD24F02DCC0EDD1EF601892D11928A95AF
:100FE000E9F70F2EF1E3AF2EBB24F02DAC0EBD1EA2
:100FF000F501892D11928A95E9F78E01075C1F4F43
:10100000F801892D11928A95E9F780E490E060E07B
:1010100070E00E948809CE0101960E947707CE01F8
:1010200009960E947707CE0141960E947707CE016C
:1010300049960E947707C7010E947707C6010E9460
:101040007707C5010E947707C8010E94770780E8EB
:1010500090E060E070E00E9488098FB78F778FBFC3
:101060008DE38BBD89E08ABD8FB58C7F8FBD9EBC23
:101070008EB58F7E8EBD87B7806187BF80E090E0A0
:10108000C05CDF4F0FB6F894DEBF0FBECDBFCF916F
:10109000DF911F910F91FF90EF90DF90CF90BF9065
:1010A000AF909F9008952F923F924F925F926F92D0
:1010B0007F928F929F92AF92BF92CF92DF92EF92E8
:1010C000FF920F931F93DF93CF93CDB7DEB72C978B
:1010D0000FB6F894DEBF0FBECDBF0F2EFBE88F2EEC
:1010E0009924F02D0F2EFAE8EF2EFF24F02D0F2E6D
:1010F000FDE74F2E5524F02D5E010894A11CB11C74
:101100000F2EF5E0CF2EDD24F02DCC0EDD1E6DB6BA
:101110007EB63DB6272C0E949007F89482B180637A
:1011200082B91D9A1C98D4018C918C7F8C93F70105
:1011300080818860808380818F7E8083D2018C91C2
:1011400080618C93E7E8F0E01082EEE3A6E8B0E07F
:10115000EC937894D7018C9185608C93C50161E004
:1011600070E044E050E00E94B00AC6016AE070E01E
:1011700044E050E00E94B00AC501B6010E941C067E
:101180008091A0019091A101A091A201B091A30131
:1011900089879A87AB87BC87CE0109960E94AD06E6
:1011A00000D000D00F926DB67EB60894611C711C01
:1011B000EDB7FEB7E955F2400FB6F894FEBF0FBE8B
:1011C000EDBF0DB71EB70F5F1F4F862D972D64E043
:1011D00070E00E946D00862D972D64E070E0A801FC
:1011E00096010E9427038EB585608EBD8FEF93E236
:1011F000A4EF81509040A040E1F700C00000832D93
:10120000922D0FB6F8949EBF0FBE8DBF80CF1F9258
:101210000F920FB60F920BB60F9211242F933F939C
:101220004F935F936F937F938F939F93AF93BF93EE
:10123000EF93FF930E946700FF91EF91BF91AF91F1
:101240009F918F917F916F915F914F913F912F91DE
:101250000F900BBE0F900FBE0F901F9018951F920E
:101260000F920FB60F9211248F939F9393B180E347
:10127000892783B99F918F910F900FBE0F901F9078
:101280001895AA9A8FE891E00197F1F700C0000045
:1012900083B3AA9882958F7090E008959FE094BBE5
:1012A000826085BB0E9441090895EF92FF920F93DF
:1012B0001F93CF93DF938C010E944E09EC01C295DE
:1012C000D295D07FDC27C07FDC27C8010E944E0961
:1012D000C82BD92B7E018C2F9F2DDF91CF911F9191
:1012E0000F91FF90EF90089580E090E00E945509E3
:1012F00087FDFACF08952FEF24BB82959295907FBA
:101300009827807F9827862B85BB0E9441090895E6
:101310000F931F93CF93DF93EC018B0195958795E6
:101320009595879595958795959587950E947B09C5
:10133000CE01B8010E947B090E947409DF91CF9110
:101340001F910F91089583E090E060E070E00E94AB
:101350007B098FE19EE40197F1F700C0000083E074
:1013600090E060E070E00E947B098FE19EE40197CD
:10137000F1F700C0000083E090E060E070E00E94C0
:101380007B098FE19EE40197F1F700C0000082E045
:1013900090E060E070E00E947B098FE19EE401979D
:1013A000F1F700C000008CE290E060E070E00E9485
:1013B000880988E090E060E070E00E94880981E0A0
:1013C00090E060E070E00E94880986E090E060E0D4
:1013D00070E00E94880908950F931F930E94550999
:1013E000082F192F0E947409802F912F1F910F91A0
:1013F0000895991B79E004C0991F961708F0961B71
:10140000881F7A95C9F78095089597FB092E0726BE
:101410000AD077FD04D00CD006D000201AF47095C5
:1014200061957F4F0895F6F7909581959F4F0895A8
:10143000AA1BBB1B51E107C0AA1FBB1FA617B707FA
:1014400010F0A61BB70B881F991F5A95A9F7809516
:101450009095BC01CD010895AF92BF92CF92DF92DB
:10146000EF92FF920F931F93CF93DF93EC0168816C
:1014700079818A819B81611571058105910521F42E
:1014800064E279ED8BE597E02DE133EF41E050E048
:101490000E94F60A79018A0127EA31E440E050E02F
:1014A0000E94D70A5B016C01C801B7012CEE34EF32
:1014B0004FEF5FEF0E94D70A6A0D7B1D8C1D9D1DAB
:1014C00097FF04C0615070408040904868837983E2
:1014D0008A839B837F77CB01DF91CF911F910F91FF
:1014E000FF90EF90DF90CF90BF90AF9008950E9453
:1014F0002C0A089584EC91E00E942C0A0895A0E043
:10150000B0E08093C4019093C501A093C601B0934D
:10151000C7010895FC0188279927E894219120327A
:10152000E9F3293010F02E30C8F32B3241F02D3280
:1015300039F4689404C00E94A80A820F911D219179
:1015400020532A30C0F31EF4909581959F4F089543
:101550007AE0979F902D879F802D910D11240895FB
:10156000DC01CB01FC01E199FECF06C0FFBBEEBB65
:10157000E09A31960DB20D9241505040B8F708955F
:10158000DC01CB0103C02D910E94CB0A4150504099
:10159000D0F70895262FE199FECF9FBB8EBB2DBBC0
:1015A0000FB6F894E29AE19A0FBE01960895629FF1
:1015B000D001739FF001829FE00DF11D649FE00D4B
:1015C000F11D929FF00D839FF00D749FF00D659FAC
:1015D000F00D9927729FB00DE11DF91F639FB00DAB
:1015E000E11DF91FBD01CF011124089597FB092EBC
:1015F00005260ED057FD04D014D00AD0001C38F4B4
:1016000050954095309521953F4F4F4F5F4F08952E
:10161000F6F790958095709561957F4F8F4F9F4F0E
:101620000895A1E21A2EAA1BBB1BFD010DC0AA1F23
:10163000BB1FEE1FFF1FA217B307E407F50720F03B
:10164000A21BB30BE40BF50B661F771F881F991FB6
:101650001A9469F760957095809590959B01AC01FF
:0A166000BD01CF010895F894FFCFFB
:10166A00303030003131313100566F69746974217C
:10167A00004D6F766520637572736F7200436861FF
:10168A006E67652076616C7565004174206C6566CD
:10169A007420736964653A005265616420686973ED
:1016AA00746F7279004233206163636570747320CA
:1016BA00677565737300616E642073746172747305
:1016CA002067616D65210057656C636F6D652074D5
:1016DA006F202020202020004D61737465724D69AF
:1016EA006E64202020202020004869676873636F99
:1016FA0072653A00496E73657274206E616D650099
:10170A00414141000004061F0604000000040C1FAA
:10171A000C040000000404041F0E040000040E1F41
:08172A000404040001000000AA
:00000001FF
